{"txid": "59d2780701c8352ad77c026652d67ea596fe4e9316580f02c171e2137fa91578", "hash": "59d2780701c8352ad77c026652d67ea596fe4e9316580f02c171e2137fa91578", "version": 1, "size": 984,
          "locktime": 0,
  "vin": [
    {"txid": "1f2ab77473ed8c68465bfeff559d7f2404e19adb6f1816aac13ac97b69fbeb7f", "vout": 1, "scriptSig": {
            "asm": "0 304402203c2fc2de87f09690fc39dc31862e06cb1b4de600dced1169a10d93ac81eb91af02200b7eb75b494107ad23070b8cb6198609f89de94540570a315384f29920ae20cf[ALL] 304402205e78219f9124e2c5784f537b77da31698ef17ddafc57fbd8903540324dd8f0ef02207733991bd88f2adb9b6389dfe42bf5f5e5b0416fd98c3e17862b1b8ebdf4d98a[ALL] 5221025813853abc0c45bfbc85653963028e279ffebae52d797ec45e377efabeb8b7c0210204381903712f38cbf351a34b7f648b619c4b48ea6f3cff1d74fb85103769518652ae",
            "hex": "0047304402203c2fc2de87f09690fc39dc31862e06cb1b4de600dced1169a10d93ac81eb91af02200b7eb75b494107ad23070b8cb6198609f89de94540570a315384f29920ae20cf0147304402205e78219f9124e2c5784f537b77da31698ef17ddafc57fbd8903540324dd8f0ef02207733991bd88f2adb9b6389dfe42bf5f5e5b0416fd98c3e17862b1b8ebdf4d98a01475221025813853abc0c45bfbc85653963028e279ffebae52d797ec45e377efabeb8b7c0210204381903712f38cbf351a34b7f648b619c4b48ea6f3cff1d74fb85103769518652ae"},                                   "sequence": 4294967295},
    {"txid": "6c923afce47c4ced3de22b8107521904759013d524228f945169ba4fd3a0595b", "vout": 1, "scriptSig": {
            "asm": "0 3044022038d381164df616c456160c09c5b3cdbb6e837fa3acbc32447f009d4543856aa50220359c9de46709e70c0a3c43f6924c371231fcbafacacb369a2caa26e3dceabdf4[ALL] 30450221008e444090447a2d4fca4475e82492f07e3afd7230334646e5fb541af3487943a0022038ba29b718856f92f8e95bec74a5a363959ccf4dcfe4b9a7d2fb6bcfb6828268[ALL] 522102d68d361a219520adc62c7497a48bfe55af31ded8ec82fae4339d07a0281bee352102738931f7548cb905025954320a01524f8c1f471584cd8d5a811becd5a5bdc8cb52ae",
            "hex": "00473044022038d381164df616c456160c09c5b3cdbb6e837fa3acbc32447f009d4543856aa50220359c9de46709e70c0a3c43f6924c371231fcbafacacb369a2caa26e3dceabdf4014830450221008e444090447a2d4fca4475e82492f07e3afd7230334646e5fb541af3487943a0022038ba29b718856f92f8e95bec74a5a363959ccf4dcfe4b9a7d2fb6bcfb68282680147522102d68d361a219520adc62c7497a48bfe55af31ded8ec82fae4339d07a0281bee352102738931f7548cb905025954320a01524f8c1f471584cd8d5a811becd5a5bdc8cb52ae"},                                                           "sequence": 4294967295},
    {"txid": "b622bb0e327ca4892401bbe3056ab13e0a3da0883a5f33d6815c2a56ee56f115", "vout": 310, "scriptSig": {
            "asm": "3045022100da0534b181ea6569497b02fe4708f497a13c31f71c1f6ff4d6a2f15cef003bd1022023237ec4a163a232bedc44f0b8ca53f1e60c841a4321ac5ad5c15db153e69ac0[ALL] 02e1df9b80b04a6e641c7212da01dc0f16be35a20224587dfb82b1fcda87add8ed",
            "hex": "483045022100da0534b181ea6569497b02fe4708f497a13c31f71c1f6ff4d6a2f15cef003bd1022023237ec4a163a232bedc44f0b8ca53f1e60c841a4321ac5ad5c15db153e69ac0012102e1df9b80b04a6e641c7212da01dc0f16be35a20224587dfb82b1fcda87add8ed"},  "sequence": 4294967295},
    {"txid": "b622bb0e327ca4892401bbe3056ab13e0a3da0883a5f33d6815c2a56ee56f115", "vout": 311, "scriptSig": {
                                                                                                                    "asm": "304402204256b85808b7e980abb48433fb6095a0b551752c2cb43e0b7b1ca2d73ba53bed02202087fbe492643ffc7bd990ea39e661e2a23b41478ea4150bcae93b5dfd8f112c[ALL] 02e1df9b80b04a6e641c7212da01dc0f16be35a20224587dfb82b1fcda87add8ed",
                                                                                                                    "hex": "47304402204256b85808b7e980abb48433fb6095a0b551752c2cb43e0b7b1ca2d73ba53bed02202087fbe492643ffc7bd990ea39e661e2a23b41478ea4150bcae93b5dfd8f112c012102e1df9b80b04a6e641c7212da01dc0f16be35a20224587dfb82b1fcda87add8ed"},
                                                                                                                "sequence": 4294967295}],
  "vout": [
    {"value": 0.00000000, "n": 0, "scriptPubKey": {"asm": "OP_RETURN 4f4101000390fd8ef803f0aac7c10380aecdbe1400", "hex": "6a154f4101000390fd8ef803f0aac7c10380aecdbe1400", "type": "nulldata"}},
    {"value": 0.00002700, "n": 1, "scriptPubKey": {"asm": "OP_HASH160 c2b635ebc69e5191dc1e4074a4633cf13362f04c OP_EQUAL", "hex": "a914c2b635ebc69e5191dc1e4074a4633cf13362f04c87", "reqSigs": 1, "type": "scripthash",
                      "addresses": ["bitcoincash:prptvd0tc609rywureq8ffrr8ncnxchsfsh6dsmpv0"]}},
    {"value": 0.00002700, "n": 2, "scriptPubKey": {"asm": "OP_HASH160 ff356b9cd700001e7cbfd92dca91e5449070020a OP_EQUAL", "hex": "a914ff356b9cd700001e7cbfd92dca91e5449070020a87", "reqSigs": 1,
                       "type": "scripthash",
                       "addresses": ["bitcoincash:prln26uu6uqqq8nuhlvjmj53u4zfquqzpguv409vfy"]}},
    {"value": 0.00002700, "n": 3, "scriptPubKey": {"asm": "OP_HASH160 ff356b9cd700001e7cbfd92dca91e5449070020a OP_EQUAL", "hex": "a914ff356b9cd700001e7cbfd92dca91e5449070020a87", "reqSigs": 1, "type": "scripthash",
                      "addresses": ["bitcoincash:prln26uu6uqqq8nuhlvjmj53u4zfquqzpguv409vfy"]}},
    {"value": 0.00089044, "n": 4, "scriptPubKey": {"asm": "OP_DUP OP_HASH160 4bafd3780031cae8b9f8e419fa5352e4e0e639ac OP_EQUALVERIFY OP_CHECKSIG", "hex": "76a9144bafd3780031cae8b9f8e419fa5352e4e0e639ac88ac", "reqSigs": 1,
                      "type": "pubkeyhash", "addresses": ["bitcoincash:qp96l5mcqqcu469elrjpn7jn2tjwpe3e4s9tmj2lrw"]}}],
  "hex": "01000000047febfb697bc93ac1aa16186fdb9ae104247f9d55fffe5b46688ced7374b72a1f01000000d90047304402203c2fc2de87f09690fc39dc31862e06cb1b4de600dced1169a10d93ac81eb91af02200b7eb75b494107ad23070b8cb6198609f89de94540570a315384f29920ae20cf0147304402205e78219f9124e2c5784f537b77da31698ef17ddafc57fbd8903540324dd8f0ef02207733991bd88f2adb9b6389dfe42bf5f5e5b0416fd98c3e17862b1b8ebdf4d98a01475221025813853abc0c45bfbc85653963028e279ffebae52d797ec45e377efabeb8b7c0210204381903712f38cbf351a34b7f648b619c4b48ea6f3cff1d74fb85103769518652aeffffffff5b59a0d34fba6951948f2224d513907504195207812be23ded4c7ce4fc3a926c01000000da00473044022038d381164df616c456160c09c5b3cdbb6e837fa3acbc32447f009d4543856aa50220359c9de46709e70c0a3c43f6924c371231fcbafacacb369a2caa26e3dceabdf4014830450221008e444090447a2d4fca4475e82492f07e3afd7230334646e5fb541af3487943a0022038ba29b718856f92f8e95bec74a5a363959ccf4dcfe4b9a7d2fb6bcfb68282680147522102d68d361a219520adc62c7497a48bfe55af31ded8ec82fae4339d07a0281bee352102738931f7548cb905025954320a01524f8c1f471584cd8d5a811becd5a5bdc8cb52aeffffffff15f156ee562a5c81d6335f3a88a03d0a3eb16a05e3bb012489a47c320ebb22b6360100006b483045022100da0534b181ea6569497b02fe4708f497a13c31f71c1f6ff4d6a2f15cef003bd1022023237ec4a163a232bedc44f0b8ca53f1e60c841a4321ac5ad5c15db153e69ac0012102e1df9b80b04a6e641c7212da01dc0f16be35a20224587dfb82b1fcda87add8edffffffff15f156ee562a5c81d6335f3a88a03d0a3eb16a05e3bb012489a47c320ebb22b6370100006a47304402204256b85808b7e980abb48433fb6095a0b551752c2cb43e0b7b1ca2d73ba53bed02202087fbe492643ffc7bd990ea39e661e2a23b41478ea4150bcae93b5dfd8f112c012102e1df9b80b04a6e641c7212da01dc0f16be35a20224587dfb82b1fcda87add8edffffffff050000000000000000176a154f4101000390fd8ef803f0aac7c10380aecdbe14008c0a00000000000017a914c2b635ebc69e5191dc1e4074a4633cf13362f04c878c0a00000000000017a914ff356b9cd700001e7cbfd92dca91e5449070020a878c0a00000000000017a914ff356b9cd700001e7cbfd92dca91e5449070020a87d45b0100000000001976a9144bafd3780031cae8b9f8e419fa5352e4e0e639ac88ac00000000"}
