{"txid": "ab188e2ae90a6e54dad6200f0d2ef188b723d2b393bbd01e65d753058afcba62", "hash": "ab188e2ae90a6e54dad6200f0d2ef188b723d2b393bbd01e65d753058afcba62", "version": 1, "size": 438,
          "vsize": 438, "weight": 1752, "locktime": 0,
  "vin": [
    {"txid": "4b9a54cfb92d40897f0ba25aca86da6268035bb706f9bc1184744e8d987f28d5", "vout": 1, "scriptSig": {
            "asm": "3045022100fac4ba8fc1fc80fe0a27ec65cdb58192ada12fe12729b04d30d1ee2a3291367102205e273e02ddafe42e4de6146b378608c25cd8a2937ccfb7252ae64f27d0ed6e5e[ALL] 02dd6a4641ad9f327643144abc6bca8fdf5f94f5d430de908a9253b5a18c055a7b",
            "hex": "483045022100fac4ba8fc1fc80fe0a27ec65cdb58192ada12fe12729b04d30d1ee2a3291367102205e273e02ddafe42e4de6146b378608c25cd8a2937ccfb7252ae64f27d0ed6e5e012102dd6a4641ad9f327643144abc6bca8fdf5f94f5d430de908a9253b5a18c055a7b"}, "sequence": 4294967295},
    {"txid": "4b9a54cfb92d40897f0ba25aca86da6268035bb706f9bc1184744e8d987f28d5", "vout": 2, "scriptSig": {
            "asm": "304402201dc2ed7e6c5fe5550f06185fae4a900d966b79d475094c357174802b3e41ebec02204db9f10344bcd9eeb82bf3a7759deaf27f7bee71465cac00d89d498efc20837d[ALL] 0361f26bf6731f956d2e62ee98a7a9fc6f0d36efdc9e6916973e7986a5ba9d19c4",
            "hex": "47304402201dc2ed7e6c5fe5550f06185fae4a900d966b79d475094c357174802b3e41ebec02204db9f10344bcd9eeb82bf3a7759deaf27f7bee71465cac00d89d498efc20837d01210361f26bf6731f956d2e62ee98a7a9fc6f0d36efdc9e6916973e7986a5ba9d19c4"},  "sequence": 4294967295}],
  "vout": [
    {"value": 0.00000000, "n": 0, "scriptPubKey": {"asm": "OP_RETURN 6f6d6e69000000000000001f0000003b28f37f50", "hex": "6a146f6d6e69000000000000001f0000003b28f37f50", "type": "nulldata"}},
    {"value": 0.00000600, "n": 1, "scriptPubKey": {"asm": "OP_DUP OP_HASH160 915b80d17123273d9ed83dddc4c8784188c4d2d0 OP_EQUALVERIFY OP_CHECKSIG", "hex": "76a914915b80d17123273d9ed83dddc4c8784188c4d2d088ac", "reqSigs": 1, "type": "pubkeyhash", "addresses": ["1EFabZzqMDZALgJmZ7DMHdLj9SPRSuXAvU"]}},
    {"value": 0.05248496, "n": 2, "scriptPubKey": {"asm": "OP_DUP OP_HASH160 0e49b81f43f719255334d008a790ef674e2e72c2 OP_EQUALVERIFY OP_CHECKSIG", "hex": "76a9140e49b81f43f719255334d008a790ef674e2e72c288ac", "reqSigs": 1, "type": "pubkeyhash", "addresses": ["12JYmnfYU2ghzjwUAspzJsSnmJtK9bZPYR"]}},
    {"value": 0.00000600, "n": 3, "scriptPubKey": {"asm": "OP_DUP OP_HASH160 7278fbd4f8cf06df7d189f0cb5970cfe96d362ca OP_EQUALVERIFY OP_CHECKSIG", "hex": "76a9147278fbd4f8cf06df7d189f0cb5970cfe96d362ca88ac", "reqSigs": 1, "type": "pubkeyhash", "addresses": ["1BSGxxxZu3GXzoG7BSSN1zegZTS2zNwTNf"]}}],
  "hex": "0100000002d5287f988d4e748411bcf906b75b036862da86ca5aa20b7f89402db9cf549a4b010000006b483045022100fac4ba8fc1fc80fe0a27ec65cdb58192ada12fe12729b04d30d1ee2a3291367102205e273e02ddafe42e4de6146b378608c25cd8a2937ccfb7252ae64f27d0ed6e5e012102dd6a4641ad9f327643144abc6bca8fdf5f94f5d430de908a9253b5a18c055a7bffffffffd5287f988d4e748411bcf906b75b036862da86ca5aa20b7f89402db9cf549a4b020000006a47304402201dc2ed7e6c5fe5550f06185fae4a900d966b79d475094c357174802b3e41ebec02204db9f10344bcd9eeb82bf3a7759deaf27f7bee71465cac00d89d498efc20837d01210361f26bf6731f956d2e62ee98a7a9fc6f0d36efdc9e6916973e7986a5ba9d19c4ffffffff040000000000000000166a146f6d6e69000000000000001f0000003b28f37f5058020000000000001976a914915b80d17123273d9ed83dddc4c8784188c4d2d088acf0155000000000001976a9140e49b81f43f719255334d008a790ef674e2e72c288ac58020000000000001976a9147278fbd4f8cf06df7d189f0cb5970cfe96d362ca88ac00000000"}
